:020000040800F2
:1000000000C20024B5020008B740000849400008BB
:10001000B5400008450500083162000800000000F6
:100020000000000000000000000000007543000810
:100030005509000800000000A941000877430008A6
:10004000CF020008CF020008CF020008CF0200084C
:10005000CF020008CF020008CF020008CF0200083C
:10006000CF020008CF020008CF020008CF0200082C
:10007000CF020008CF020008CF020008CF0200081C
:10008000CF020008CF020008CF020008CF0200080C
:10009000CF020008CF020008CF020008CF020008FC
:1000A000CF020008CF020008CF020008CF020008EC
:1000B000CF020008D5440008CF020008CF02000894
:1000C000CF020008CF020008CF020008CF020008CC
:1000D000CF020008CF020008894D0008CF020008B7
:1000E000CF020008CF02000800000000CF02000885
:1000F000CF020008CF020008CF020008B5070008B1
:10010000CF020008CF020008CF020008CF0200088B
:10011000CF020008CF020008CF020008CF0200087B
:10012000CF020008CF020008CF020008CF0200086B
:10013000CF020008CF020008CF020008CF0200085B
:1001400000000000000000000000000000000000AF
:10015000CF020008CF020008CF020008CF0200083B
:10016000CF020008CF020008CF020008CF0200082B
:10017000CF020008CF020008CF02000800000000F4
:10018000CF020008CF020008CF020008CF0200080B
:10019000CF020008CF020008CF020008CF020008FB
:1001A000CF020008CF020008CF020008CF020008EB
:1001B000CF020008CF020008CF020008CF020008DB
:1001C000CF020008CF020008CF020008CF020008CB
:1001D000CF020008B9400008CF020008CF02000893
:1001E000CF020008CF020008CF020008CF020008AB
:1001F000CF020008CF020008CF020008CF0200089B
:10020000CF020008CF020008CF020008CF0200088A
:10021000CF020008CF020008CF020008CF0200087A
:10022000CF020008CF020008CF0200080000000043
:10023000CF020008CF02000800000000CF02000833
:10024000CF020008CF020008CF020008CF0200084A
:10025000CF020008CF020008CF020008CF0200083A
:10026000CF020008CF020008CF020008CF0200082A
:10027000CF020008CF020008CF02000800000000F3
:10028000CF02000800000000CF02000800000000BC
:1002900000000000CF020008DFF80CD000F07EF86C
:1002A00000480047656A000800C2002480F30888FF
:1002B000084700000648804706480047FEE7FEE77B
:1002C000FEE7FEE7FEE7FEE7FEE7FEE7FEE7FEE706
:1002D00051440008990200082DE9F05F054600200E
:1002E00092469B4688460646814640241BE02846A7
:1002F00041464746224600F041F853465A46C01A46
:10030000914110D311461846224600F028F82D1AC4
:1003100067EB01084F4622460120002100F01FF83C
:1003200017EB00094E41201EA4F10104DFDC484612
:1003300031462A464346BDE8F09F40EA01039B0749
:1003400003D009E008C9121F08C0042AFAD203E04A
:1003500011F8013B00F8013B521EF9D27047202AE8
:1003600004DB203A00FA02F1002070479140C2F10C
:10037000200320FA03F3194390407047202A04DB3E
:10038000203A21FA02F00021704721FA02F3D0400E
:10039000C2F120029140084319467047064C074DB0
:1003A00006E0E06840F0010394E807009847103445
:1003B000AC42F6D3FFF774FFE06C0008006D000854
:1003C00070B58C1810F8015B15F0070301D110F817
:1003D000013B2A1106D110F8012B03E010F8016B44
:1003E00001F8016B5B1EF9D12B0705D40023521EC7
:1003F0000DD401F8013BFAE710F8013BCB1A921C2F
:1004000003E013F8015B01F8015B521EF9D5A1422C
:10041000D8D3002070BD000070B5040011D0012CAD
:1004200011D1094D0022094E36F8240081B2284628
:1004300001F0E1F856F824102846BDE8704000F0BD
:1004400041BF034DEEE770BD00040258C06C0008C8
:100450000010025870B50400164886B020D0012C58
:100460001CD1154D016841F002010160006800F0E7
:100470000200124E0590694656F8240000900120B3
:100480000190029003200390284600F0B7FF36F851
:100490002400012281B2284601F0ADF806B070BDFB
:1004A000074D016841F010010160006800F0100084
:1004B000DFE70000E044025800040258C06C000866
:1004C00000100258074938B101280AD18888012252
:1004D00081B2054801F08FB80888012281B2034833
:1004E000F8E77047C06C000800040258001002587A
:1004F000074938B101280AD18888002281B205480D
:1005000001F079B80888002281B20348F8E7704703
:10051000C06C00080004025800100258064930B1AF
:10052000012808D1888881B2044801F060B80888A1
:1005300081B20348F9E77047C06C00080004025814
:1005400000100258FEE70000042810B524DD134A0D
:10055000202802D021281FD10DE0CB78086863F352
:100560001F60106008791071487950718879907116
:1005700000F0D6F810E0107808701088000A487073
:100580001068000C88701068000EC870107908712F
:100590005079487190798871002010BD0C000024BA
:1005A000034810B503F0D6FA002800D0FEE710BDCE
:1005B00054160024174844F62062154910B501600E
:1005C00015490968B1FBF2F1144A491E11604160F6
:1005D000002141F28732C0E90321816003F0A6F9CE
:1005E00000B1FEE70B4803F0BDF900B1FEE7094892
:1005F00003F0B8F900B1FEE709490022094804F008
:1006000099FC0949074804F08FFC002010BD000048
:1006100000040040D41600248400002400000024BC
:10062000540E00248C180024540600242DE9F041B7
:100630000646054608680F462021BFF34F8F0D4A36
:1006400002E01560401A0D440028FADCBFF34F8F1A
:10065000BFF36F8F002403E0305D06F0F5FA641CF1
:100660003868A042F8D8044804F042FC0020BDE8F5
:10067000F081000068EF00E08C1800240A46014673
:10068000044810B504F056FC024804F093FC40B254
:1006900010BD00008C180024F0B5BFF34F8FBFF3DE
:1006A0006F8F1D4900200860BFF34F8FBFF36F8F1E
:1006B0001A4C216841F400312160BFF34F8FBFF322
:1006C0006F8F164970310860BFF34F8F081F0068A5
:1006D00043F6FF75104E1036C0F34E31C0F3C90318
:1006E00005EA4112184642EA80773760401EFAD286
:1006F000491EF5D2BFF34F8F206840F48030206050
:10070000BFF34F8FBFF36F8F03484C30016841F048
:1007100004010160F0BD000050EF00E014ED00E0C6
:10072000204810B503F016FA00B1FEE71E4B002179
:100730001C481A790AB1022A01D0C16002E04FF4C4
:100740000052C2605A791AB1012A03D0022A04D099
:10075000016105E04FF4C06201E04FF48062026184
:100760009A79072A11D0082A0FD102696AB14FF489
:10077000805282601A6842600C22C0E90521C16182
:10078000084803F0C9FA10B1FEE78160F2E70849B2
:10079000012206480968BDE810400144014803F001
:1007A000A3BB0000541600240C00002400210024E8
:1007B000C80100240148006F00F048BA5416002414
:1007C00001681823CAB2103AB2FBF3F2054B6FF37B
:1007D0000901032A9B5CC36500D9091D8165084690
:1007E00070470000926C000810B51249012302689E
:1007F00054188C2CD1B20AD814220839B1FBF2F16A
:100800000D4A02EB810202660B4A80320EE0182488
:100810001039B1FBF4F1094C2244A82A00D8083160
:10082000074A02EB81020266054A80328B40C0E92A
:10083000192310BDF8ABFDA700580258F0FBFDBF0F
:100840000008024010B5017903684A1E072A14D82F
:100850000A4C23448C2B06D8094B03EB8101C1665B
:100860000749443105E0074B03EB8101C1660549A7
:100870004431016701219140416710BDF8ABFDA7EC
:10088000FC580258FC080240014610B500208B6954
:100890004FF0C0748A6A53B1B3F5005F15D072B1DE
:1008A000012A0CD0022A0AD0032A09D104E01AB185
:1008B000012A06D0022A03D1C96AC90100D5012044
:1008C00010BDC96AA142FAD010BD002AF7D0012A92
:1008D000F2D0022AF3D0032AF3D010BDF0B5D0E94C
:1008E0001964856D7460C46E14B1D0E91C466660ED
:1008F000154E04682644B6F5956F11D890F85C60E3
:100900003F24B440AC600468256825F4802512E0DB
:100910009A600068C160F0BD99600068C260F0BD77
:100920000A4D2C448C2CFAD8094C2568012690F8E5
:100930005C70BE4035432560046863608368402B6B
:100940000368E9D1E4E70000F0FFFDBFF8ABFDA7C5
:10095000045402587047FEE770B51A4BCC074FF4A9
:10096000E06513D0DC6824F4E664DC60DC6895FAAA
:10097000A5F6B6FA86F6144300FA06F646F0040623
:100980003443DC60DC6844F08004DC60890718D5FF
:10099000D3F80C1121F4E661C3F80C11D3F80C1153
:1009A000114395FAA5F2B2FA82F2904040F00400A9
:1009B0000143C3F80C11D3F80C0140F08000C3F8D8
:1009C0000C0170BD002000524A4900228A610128B2
:1009D000494A2ED002287DD1D2F81001800303D5D8
:1009E000886940F480508861D2F81001400303D533
:1009F000886940F400508861D2F81001000303D5E3
:100A0000886940F480408861D2F81001800203D5E3
:100A1000886940F400408861D2F81001400203D593
:100A2000886940F4803088611369344898433FD026
:100A300042E01069800303D5886940F001008861B5
:100A40001069400303D5886940F00200886110698D
:100A5000000303D5886940F00400886110698002B2
:100A600003D5886940F0080088611069400203D509
:100A7000886940F0100088611069000203D5886918
:100A800040F0200088611069C00103D5886940F0FA
:100A9000400088611069800103D5886940F08000BA
:100AA00088611069400123D5886940F480701EE098
:100AB000886940F40030886113694FF00140984321
:100AC00003D1886940F48020886113694FF00240A7
:100AD000984300E00CE003D1886940F4002088616D
:100AE000D2F81001400103D5886940F48010886174
:100AF00070470000D41A00240020005200008080BB
:100B00002DE9F05F00250F46804600F079FD254E67
:100B100000EB080A224C012FB06902D1002800DB4B
:100B20000724DFF884B004EA0B09B9F1000F14D0F0
:100B3000D6F8100124EA0000400020B1012F10D0A7
:100B4000022F14D01BE0B8F1FF3FEED000F058FDAB
:100B50005045EAD30320BDE8F09F306924EA000045
:100B6000EBE730691149084209D00D4608E0D6F894
:100B700010110F480140490001D0054600E06DB159
:100B80003846FFF721FF15EA0B0F01D1756103E02D
:100B900025F00040C6F814010120DCE70020DAE768
:100BA0000700008000200052F0FF10F00000EE0768
:100BB0000000EE8710B528B190F83510022903D057
:100BC00080214165012010BD1D4A4FF495630168E5
:100BD0008C189C4207D8042280F83520086820F041
:100BE0000100086029E00C6824F00E040C60016824
:100BF0000A440A6822F001020A60016E0A6822F4BF
:100C000080720A6090F85C30012202FA03F10D4B09
:100C10001960D0E919134B60C16E31B10B6823F430
:100C200080730B60D0E91C134B60002180F83410F6
:100C300080F83520016D01B18847002010BD00000B
:100C4000F0FFFDBF04540258406D70472DE9F84F86
:100C50000446A948002700974FF41651A56D006877
:100C6000B0FBF1FB2E680823DFF890824FF4956902
:100C700020684FF0010A00EB0801494576D894F846
:100C80005C201946934033420FD0026812F0040FE3
:100C90000BD0026822F00402026094F85C008140EC
:100CA000A960606D40F00100606594F85C009449B3
:100CB000814031420DD0206800EB08024A452CD813
:100CC000406910F0800F04D0A960606D40F0020010
:100CD00060658B4994F85C00C91C814031420DD09D
:100CE000206800EB08024A45006807D810F0020FA0
:100CF00004D0A960606D40F00400606594F85C0069
:100D000010218140314222D0206800EB08024A4580
:100D1000006804D800F0080003E00068D9E700F09C
:100D20000400A0B1A96020680168490304D50068E7
:100D3000000308D5A16C07E00168C90503D4016868
:100D400021F008010160216C09B12046884794F820
:100D50005C002021814031423AD0206800EB08023B
:100D60004A45006803D800F0100002E065E000F09A
:100D7000020068B3A96094F835000428206801686F
:100D800006D0490342D5006800031DD4616C1CE005
:100D900021F0160101602068416921F08001416164
:100DA000206C08B9A06C20B12068016821F008010E
:100DB000016094F85C103F208840A86084F834708B
:100DC00084F835A0216D31E0E16B09B120468847F8
:100DD000606D002875D0606DC00726D0042084F8AF
:100DE00035002068016821F0010101602168009848
:100DF000401C0090584502D80868C007F7D184F815
:100E000034700868C0070DD003200CE00168C905E4
:100E1000DAD4016821F01001016084F8347084F89C
:100E200035A0D1E7504684F83500E16C002961D047
:100E300001B02046BDE8F04F0847324901448C29F3
:100E400058D8314ED6F800C00425E16D05FA01F2FC
:100E50001CEA020F06F1040213D0D0F800C05FEACA
:100E60004C7C0ED50168890603D4016821F0040189
:100E70000160106894F85C108D4028431060216C6C
:100E8000D4E7D6F800C0022505FA01F81CEA080FDD
:100E900018D0D0F800C05FEA8C7C13D501688906B1
:100EA00007D4016821F00A01016084F8347084F8E5
:100EB00035A0106894F85C108D4028431060E16BF9
:100EC000B4E717E035688B401D4213D0016809076D
:100ED00010D5016821F00E0101601168504694F8A8
:100EE0005C300AFA03F319431160C4F854A084F883
:100EF000347098E7BDE8F88F84000024F0FFFDBF50
:100F000001008000F8ABFDA7005402582DE9F0471E
:100F1000044600F075FB0646BCB15E4920272068F8
:100F200000254FF0010A4FF0030842184FF0400926
:100F30000221B2F5956F50D884F8345084F83510FA
:100F4000016821F00101016009E00120BDE8F0879E
:100F500000F056FB801B052801D9676579E0206801
:100F60000068C007F4D121680A684B480240D4E900
:100F700002031843D4E9043633431843A3691843E2
:100F8000E3691843236A18431043626A042A03D1B1
:100F9000D4E90B231A43104308602068406920F00D
:100FA0000701606A042840EA01060BD1A06A0643E3
:100FB000E06A38B12046FFF767FC18B1C4F85490D6
:100FC000504647E0206846612046FFF7F9FB94F859
:100FD0005C203F21914081602DE0304BC2188C2A6B
:100FE00035D884F8345084F83510026847F6F0712B
:100FF0008A43A168402925D0802925D00021E668B0
:1010000041EAD601266941EAD601666941EAD6017C
:10101000A66941EAD601E66907EAD6063143266A9F
:1010200041EA161111430160206814211844B0FBF5
:10103000F1F08000E0652046FFF7D6FBA06880282D
:101040000BD00BE01021DAE74FF48041D7E7C4F86A
:101050005490404684F8350077E76560216E20792A
:101060000860D4E9190141606068401E072808D86B
:101070002046FFF7E7FBE06E0560D4E91C01416004
:1010800002E0E56625676567656584F835A00020A0
:101090005CE70000F0FFFDBF3F8010FEF8ABFDA74E
:1010A0002DE9F04104004FF0000514D094F834000D
:1010B000012812D0012084F8340094F83560002013
:1010C000012E0CD084F834004FF4006060650125D7
:1010D0002846BDE8F0810120FBE70220F9E702265F
:1010E00084F8356060654FF4956720681F4ED0F82E
:1010F00000C02CF0010CC0F800C02046FFF7EEFB4A
:1011000020688119B942016810D821F01E0141F010
:10111000160101602068416941F080014161206C45
:1011200080B12068016841F008010AE021F00E0159
:1011300041F00A010160206C20B12068016841F093
:1011400004010160206E0168C90303D5016841F400
:1011500080710160E06E18B1016841F48071016036
:101160002068016841F001010160B1E7F0FFFDBFB7
:1011700070B5044600F044FA0546601C02D00448ED
:101180000078044400F03CFA401BA042FAD370BD42
:101190008C0000240248016841F0010101607047A1
:1011A000200400580648C16841F00101C160D0F830
:1011B0000C1141F00101C0F80C1100207047000033
:1011C000002000522F482DE9F0471546027D0426E5
:1011D0000C46012A09D001228146A4F10061027562
:1011E000B1F5801F04D2012703E00220BDE8F0879B
:1011F00002274CF2503A39465046FFF781FC70BB4B
:10120000DFF88880012F204940462CD0C0F8141107
:10121000D0F80C1141F00201C0F80C11286869687F
:101220002060616008340835761E16F0FF06F5D19F
:10123000BFF34F8F39465046FFF762FC012F4146FE
:101240004FF4803215D0D1F81031DB0301D5C1F84D
:101250001421D1F80C2122F00202C1F80C21002245
:1012600089F81420C2E74161C16841F00201C16000
:10127000D4E70B69DB0300D54A61CA6822F0020299
:10128000CA60ECE7D41A00240600EF0700200052E1
:101290000948C168C9070DD0D0F80C11C90709D099
:1012A00006494160064A4260C0F80411C0F80421B2
:1012B000002070470120704700200052230167453D
:1012C000AB89EFCD2DE9F04700224FF0010A4FF036
:1012D0000F080AFA02F501EA0503AB4275D1066868
:1012E00057000324BC4026430660D60800EB860660
:1012F000D6F820C057074FEAD76908FA09F72CEA51
:10130000070CC6F820C08668A64386604668AE43D0
:101310004660C568A543C56022F0030505F1B045E8
:10132000D5F808449607370F08FA07F606EA040CC2
:10133000284CA04201D100242DE0274CA04201D12D
:10134000012428E0254CA04201D1022423E0244CB2
:10135000A04201D103241EE0224CA04201D104246A
:1013600019E0214CA04201D1052414E01F4CA042F9
:1013700001D106240FE01E4CA04201D107240AE04F
:101380001C4CA04201D1082405E01B4CA04201D115
:10139000092400E00A24BC40644516D1D5F808446D
:1013A000B443C5F808444FF0B044D4F880509D438E
:1013B000C4F88050D4F884509D43C4F88450256804
:1013C0009D43256065689D436560521C102A80D34B
:1013D000BDE8F087000002580004025800080258D7
:1013E000000C02580010025800140258001802584D
:1013F000001C025800200258002402582DE9F84F22
:101400006C4C00224FF0B04A4FF0010B4FF0030E2E
:101410004FF00F090B680BFA02F73B40BB4270D14B
:101420004D68022D01D0122D12D1D50800EB850C8C
:10143000DCF820605507ED0E09FA05F826EA0806E3
:10144000D1F8108008FA05F848EA0608CCF82080A0
:10145000D0F80080560091F804C00EFA06F50CF0A2
:10146000030C28EA05080CFA06FC4CEA080CC0F844
:1014700000C0D1F804C0BCF1010F08D0BCF1020FCC
:1014800005D0BCF1110F02D0BCF1120F16D1D0F86B
:1014900008C0D1F80C802CEA050C08FA06F848EAD6
:1014A0000C08C0F80880D0F804C02CEA070C0F79AB
:1014B000C7F30017974047EA0C074760C768AF4378
:1014C0008D68B5403D43C5604D68ED006BD53A4D24
:1014D0002E6846F002062E602D6822F0030606F103
:1014E000B04605F002050095D6F808C495072F0F01
:1014F00009FA07F52CEA050C304DA84202D1002567
:101500002EE050E02E4DA84201D1012528E02D4DBE
:10151000A84201D1022523E02B4DA84201D1032589
:101520001EE02A4DA84201D1042519E0284DA84209
:1015300001D1052514E0274DA84201D106250FE071
:10154000254DA84201D107250AE0244DA84201D12A
:10155000082505E0224DA84201D1092500E00A2511
:10156000BD4045EA0C05C6F8085425684E689D4301
:10157000F60300D51D43256065684E689D43B6039C
:1015800000D51D436560DAF8005056464F689D430C
:10159000FF0200D51D43356075684F689D43BF024B
:1015A00000D51D437560521C102AFFF433AFBDE80F
:1015B000F88F000080000058F444025800000258E0
:1015C0000004025800080258000C0258001002588B
:1015D0000014025800180258001C0258002002583B
:1015E000002402580069084000D001207047426979
:1015F0004A40426170470AB1018370474183704796
:1016000001488068704700008C000024024881680F
:1016100002781144816070478C000024032010B5CB
:1016200000F094F8002000F007F808B1012010BD88
:1016300000F04CF8002010BD70B50D4D04464FF47D
:101640007A712878B1FBF0F00A490968B1FBF0F033
:1016500002F056F948B9102C07D200222146501E3C
:1016600000F054F800206C6070BD012070BD0000D7
:101670008C00002484000024134A41781160111D5D
:1016800003780A1DE3B143680B60017BC37A090745
:1016900041EA0361837A41EAC341437B41EA8341E2
:1016A000837B41EA4341C37B41EA0341437A41EAF8
:1016B0000321037A007841EA430101431160704736
:1016C000002008601060704798ED00E07047002827
:1016D0000DDB012100F01F0291404009800000F164
:1016E000E020C0F88011BFF34F8FBFF36F8F7047BA
:1016F000002809DB012100F01F0291404009800011
:1017000000F1E020C0F80011704700000E4BF0B46B
:101710001B68C3F30223C3F10704042C00D904247B
:101720001D1D072D01D2002300E0DB1E012606FA55
:1017300004F56D1E0D409D409E40761E164045EA04
:101740000601F0BC04F075BD0CED00E0064A00F0A7
:10175000070110684FF6FF03184040EA01200349D3
:1017600008431060704700000CED00E00000FA052F
:1017700001680122C0F8F823886B40F400308863C8
:10178000886B40F480208863002070470168012244
:10179000C0F8F423002280F8EC23886940F0006050
:1017A0008861486D024A1043486500207047000078
:1017B0000300001070470068416200207047F0B5D8
:1017C00000680023446A31B1856A4E1E04EB15445B
:1017D0004FF482750AE044EA024181620FE005EBB2
:1017E0008307C7595B1CDBB204EB1744B342F6DB3B
:1017F0004FF4807303EB810144EA0242425000201F
:10180000F0BDD0F8FC0303F09BBDC1EBC10200EBBF
:101810008202D0F8FC03526C03F001BDC1EBC1029F
:1018200000EB8202D0F8FC03D2F8042203F04CBD96
:1018300010B504000CD0032084F8B903204600F052
:1018400053FD204600F02EFC002084F8B90310BDA3
:10185000012010BDD0F8FC0303F074BD10B50446A0
:101860000A4601F07F000B06C0EBC00104EB8101CA
:1018700001D5383101E001F5FC710870D0094870DC
:1018800094F8B803012809D0012084F8B80320682F
:1018900004F0C2F8002084F8B80310BD022010BD87
:1018A00070B50A460446090602F07F0005D5C0EB74
:1018B000C00104EB8101383105E0C2EBC20104EB49
:1018C000810101F5FC7100258D700870D009487008
:1018D00094F8B803012809D0012084F8B8032068DF
:1018E00004F059FA002084F8B85370BD022070BD8E
:1018F00001F00F01C1EBC10100EB8100B0F8100253
:1019000080B2704770B504460D4601F07F000E06A8
:10191000C0EBC00104EB810101D5383101E001F5D4
:10192000FC71ED0908704D708A60CB7000D0C880E2
:101930000025022B00D10D7194F8B803012809D0BD
:10194000012084F8B803206803F0BCFF284684F81F
:10195000B85370BD022070BD70B501F07F040D4614
:10196000C4EBC40100EB8101C1F80C320023C1F8C3
:101970000422C1F8103281F8F93181F8F84101F5FB
:10198000FC710369012B00D10A616A06027C0068C0
:1019900003D004F061FA002070BD04F03DF9FAE7CD
:1019A00070B50D460446090605F07F0005D5C0EB6D
:1019B000C00104EB8101383105E0C5EBC50104EB42
:1019C000810101F5FC7101228A700870E8094870F4
:1019D00094F8B803012807D084F8B823206804F0ED
:1019E0000CFA680602D007E0022070BD217C04F5E5
:1019F0006F72206804F0B0F9002084F8B80370BD5D
:101A000070B501F07F040D46C4EBC40100EB810109
:101A1000CB6400234A640B65012381F8393001F857
:101A2000384F0369012B00D10A616A06027C006805
:101A300003D004F011FA002070BD04F0EDF8FAE7CD
:101A40002DE9F84F056800260446284604F058FBA7
:101A500000287DD1206804F07CFB002878D0206825
:101A600004F077FB800702D52168022048612068D6
:101A700004F06FFB01034FF0010904F56F704FF0A4
:101A8000080A009077D5206804F045FBDFF8E0B441
:101A900080466DE05FEAC87067D02068F1B204F05C
:101AA00050FB0746C00736D005EB4611C1F8089B2E
:101AB0002A6C5A450AD3206901281CD1D5F8080B95
:101AC000000406D54FF40040C1F8080B2069012836
:101AD00011D1C6EBC600D1F8101B04EB8000D0F882
:101AE0000022C1F31201511AC0F81012D0F80412EA
:101AF0001144C0F804122046F1B2FFF78FFE2069AE
:101B0000012808D13EB9D4F80C0220B9206801217F
:101B1000009A04F021F9380716D5296C59450CD3E1
:101B20002069012809D1D5F8080B000405D505EB7B
:101B300046114FF40040C1F8080B204600F0C3FBEB
:101B400005EB4611C1F808ABF80607D5102001E0F7
:101B50000CE210E005EB4611C1F8080BB80604D5FD
:101B600005EB46112020C1F8080B761C4FEA5808F7
:101B7000B8F1000F8ED1206804F0EBFA40034FF06B
:101B8000400B5AD5206804F0BFFA0026804651E089
:101B90005FEAC8704BD02068F1B204F0C3FA074680
:101BA000C00724D0D5F8341809FA06F08143C5F8E7
:101BB000341805EB4610C0F808992069012807D1B0
:101BC000C6EBC60004EB8000D0E91021114441644B
:101BD0002046F1B2FFF719FE2069012807D136B976
:101BE000E06C20B920680121009A04F0B5F83807AC
:101BF00003D505EB4611C1F808A9F80604D505EB95
:101C000046111020C1F80809780603D505EB4611E6
:101C1000C1F808B9B80704D505EB46110220C1F890
:101C20000809380603D53146204602F04BFA761CE7
:101C30004FEA5808B8F1000FAAD1206804F089FAD9
:101C4000002810DAD5F8040820F00100C5F80408CF
:101C500094F8EC03012837D0204600F01AFB2168E5
:101C60004FF000404861206804F073FA00050AD57F
:101C7000D5F80808C00702D0204600F04DFB2168C7
:101C80004FF400604861206804F063FA000109D550
:101C900021684FF00060486194F8EC03E0B1204601
:101CA00000F03AFB206804F054FAC0045FD5D5F880
:101CB000040820F00100C5F804082068102104F091
:101CC000EFF90020FF221BE0002084F8EC0301461E
:101CD0002046FFF76FFDC2E784F8EC932068406D63
:101CE0000121C0F38300C4F8F0032046FFF762FD32
:101CF000D8E705EB4011C1F80829C1F8082B401CB2
:101D000061688142F5D84FF0FF30C5F81808D5F862
:101D10001C0840F00110C5F81C08206B60B1D5F814
:101D2000840840F00B00C5F88408D5F8440840F05A
:101D30000B00C5F844080BE0D5F8140840F00B0080
:101D4000C5F81408D5F8100840F00B00C5F81008C5
:101D5000D5F8000820F4FE60C5F80008217C206852
:101D6000009A03F0F9FF21684FF480504861206821
:101D700004F0EFF980047CD5206803F0E3FD2068CF
:101D8000C16821F47051C160206804F09BF978B1FA
:101D9000C4F814B00320E06001F0EAF97549764A0E
:101DA000014491420AD22068C16841F4705158E060
:101DB0000020E0604FF40070606136E06F49704AC7
:101DC0000144914204D22068C16841F4605148E066
:101DD0006C496D4A0144914204D22068C16841F4C3
:101DE00050513EE069496A4A0144914204D2206858
:101DF000C16841F4405134E06649674A0144914268
:101E000004D22068C16841F430512AE06349644A31
:101E10000144914204D22068C16841F4205120E07D
:101E20006049614A0144914204D22068C16841F48A
:101E3000105116E05D495E4A0144914204D2206887
:101E4000C16841F400510CE05A4908445A4988429B
:101E50002068C16803D241F4E05102E009E041F496
:101E6000C051C160204600F003FA21684FF40050D1
:101E70004861206804F06DF9C00636D52068816994
:101E800021F010018161D5F8208008F00F00C0EB2F
:101E9000C00004EB8007C8F34340022807F5FC7735
:101EA00002D0062812D01BE047F6F07118EA010FA5
:101EB00016D0C8F30A12F9689046284604F04DF986
:101EC000F8684044F860B869404408E00099082286
:101ED000284604F042F9B969C8F30A100844B86109
:101EE0002068816941F010018161206804F031F9B6
:101EF000000705D5204600F0D0F92168C1F814A0EC
:101F0000206804F026F9C00207D52046F1B200F09F
:101F100055F821684FF480104861206804F019F9E1
:101F2000800207D52046F1B200F04CF821684FF44A
:101F300000104861206804F00CF9400006D52046E6
:101F4000FFF75FFC21684FF080404861206804F093
:101F500000F940070AD520684568680702D5204681
:101F6000FFF778FC2068416829434160BDE8F88F9D
:101F70000A31544F405327FF00350C00401E1BFF11
:101F800040420F0000DC0BFF804F1200808CF9FEF6
:101F900020D6130060B6E5FE60E3160000D3CEFE47
:101FA00040771B00C05BB3FEC091210000CA91FEC8
:101FB00020753800E05459FEE09C4100D0F8FC0345
:101FC00003F00CBAD0F8FC0303F00ABAF0B5040031
:101FD0004FF000078BB054D0032084F8B90320469B
:101FE00000F07CF8206803F011FE04F1100168464F
:101FF00028220E46FEF7A1F994E80F0003F0BCFC7E
:102000002068002104F0B9F801250022C7EBC700C1
:1020100004EB800080F8395080F83870C7877F1C47
:1020200080F83B200F2F02644264C264EED300208C
:102030004FF48273C0EBC00103EB800704EB810116
:1020400081F8F92181F8F801C88781F8FB21C1F8EE
:102050000022C1F80422C1F80C222168CA51401C98
:102060000F28E7D3282231466846FEF766F994E840
:102070000F0003F021FD84F8B953A06A012803D0B2
:1020800005E001200BB0F0BD2046FFF77FFB606A42
:10209000012802D12046FFF76BFB206803F0FFFC0C
:1020A0000020EFE700680A4A0A49904203D1086815
:1020B00020F0006009E0084A904207D1086820F04B
:1020C00000700860086820F08060086070470000B9
:1020D00000000840D8440258000004402DE9F043B5
:1020E0005C4F00245A4B02250168032259480A26F6
:1020F000DFF86481083F994287B028D1016841F038
:102100000101016000686946CDE9024200F001006A
:102110000590D0020496CDE900054046FFF76EF920
:1021200028026946CDE9000440460294FFF766F9AB
:10213000386840F00060386038680022062100F0FE
:10214000006005906520FFF7E1FA65207BE0434BD6
:1021500099427AD1016841F001010160016801F002
:1021600001010591016841F002010160016801F07F
:1021700002010591016841F004010160016801F06C
:1021800004010591016841F080010160016801F0DE
:1021900080010591016841F48071016000689146F9
:1021A000CDE9024200F48070059020206946CDE917
:1021B000000540460496FFF721F908206946CDE95D
:1021C0000005CDE9024940460496FFF717F943F6AA
:1021D00023406946CDE90005214804960294FFF7A3
:1021E0000DF901206946CDE900051E4804960294C8
:1021F000FFF704F910206946CDE900051A48049656
:102200000294FFF7FBF84FF400606946CDE9000542
:10221000164804960294FFF7F1F8386840F08060A1
:102220003860386800F080600590386840F00070D1
:10223000386038680022012100F0007005904D20C0
:10224000FFF764FA4D20FFF753FA07B0BDE8F083BB
:1022500000000840E044025800000258000004401A
:102260000004025800080258001C025800200258BE
:1022700070B50446C068012500B90025D4F8FC03F8
:1022800003F0C1F8D4F8FC032946BDE8704003F020
:10229000EBB8D0F8FC0303F0D5B8D0F8FC0303F09A
:1022A000D7B810B5044690F8B803012809D001202A
:1022B00084F8B803206803F076FF002084F8B803A0
:1022C00010BD022010BDD0F8FC2300F56F71104640
:1022D00003F0D4B810B50446006803F0D4FB2068BE
:1022E00003F0C8FE002010BD10B5044690F8B803F6
:1022F00001280FD0012084F8B803206803F086FC81
:10230000206803F061FF206803F0C9FB002084F817
:10231000B80310BD022010BDD0F8FC0303F0F0B8E4
:102320000248016841F08071016070470C48025812
:102330000248016821F4807101607047004802582A
:102340000248016841F480710160704700480258FA
:1023500010B500F053FF084909684FF4807292FAF3
:10236000A2F201F47061B2FA82F2D140034A515CE8
:10237000C8400349086010BD18440258826C000828
:102380008400002410B500F0F3FE0749096810220C
:1023900092FAA2F201F07001B2FA82F2D140034A3D
:1023A000515CC84010BD000020440258826C0008F7
:1023B000364930B50A68096812F00302344BC1F39C
:1023C00005311B68334C03F010032468DFED320A3B
:1023D000B7EE001AC4F3CC0414FB03F300EE103A7A
:1023E0002E4BB8EE400A07D02D4C012A01D0022A0C
:1023F0004AD0B4FBF1F10BE0244C283C226895064E
:10240000284A03D52468C4F3C104E240B2FBF1F1C9
:1024100001EE901A1968B8EE612AC1F3080101EEC5
:10242000901A1968F8EE611A40EE201A31EE810A0E
:1024300022EE000AC1F34621491C00EE901AF8EE84
:10244000600A80EE201AFCEEC10AC0ED000A19688D
:10245000C1F30641491C00EE901AF8EE600A80EEC6
:10246000201AFCEEC10AC0ED010A1968C1F3066129
:10247000491C00EE901AF8EE600A80EE201ABCEEBD
:10248000C10A80ED020A30BD074ABFE7284402585E
:102490002C4402583C440258000000393844025889
:1024A00000093D000090D00340787D01364930B5E9
:1024B0000A68096812F00302344BC1F305511B6826
:1024C000334C03F480732468DFED320AB7EE001A50
:1024D000C4F3CC0414FB03F300EE103A2E4BB8EE19
:1024E000400A07D02D4C012A01D0022A4AD0B4FB61
:1024F000F1F10BE0244C283C22689506284A03D5CC
:102500002468C4F3C104E240B2FBF1F101EE901A79
:102510001968B8EE612AC1F3080101EE901A196832
:10252000F8EE611A40EE201A31EE810A22EE000A1E
:10253000C1F34621491C00EE901AF8EE600A80EEC5
:10254000201AFCEEC10AC0ED000A1968C1F3064169
:10255000491C00EE901AF8EE600A80EE201AFCEE9C
:10256000C10AC0ED010A1968C1F30661491C00EEF9
:10257000901AF8EE600A80EE201ABCEEC10A80EDD7
:10258000020A30BD074ABFE7284402582C440258CB
:1025900044440258000000394044025800093D00FC
:1025A0000090D00340787D012DE9F84F0446006883
:1025B0000025FC4FDFF8F0832E46010104F12400D2
:1025C000009023D5606E50B1B0F5801F0CD0B0F5EF
:1025D000001F11D0B0F5401F23D0012515E0386849
:1025E00040F4003038601CE0386840F40010386077
:1025F000201D01F0DBFD06E0386840F08070386097
:10260000009801F037FE05000BD02E462088C0054B
:1026100029D5606D052824D2DFE800F00C111921BE
:102620002100D8F80010626E21F440111143C8F85F
:102630000010EBE7386840F4003038600FE038688D
:1026400040F400203860201D01F0B0FD06E038683D
:1026500040F480003860009801F00CFE05466DB132
:1026600000E001252E43208880052ED5A06D80280E
:1026700021D00CDC90B140280ED114E0D8F8001025
:10268000626D21F007011143C8F80010EBE7C02884
:1026900019D0B0F5807F16D0012515E0386840F4D8
:1026A000003038600FE0386840F400203860201DAA
:1026B00001F07CFD06E0386840F480003860009846
:1026C00001F0D8FD054685B12E432088DFF8DC9265
:1026D000400532D5D4F8A400B0F5800F23D00DDC2E
:1026E000A0B1B0F5001F0FD115E0D8F80010A26D11
:1026F00021F4E0711143C8F80010E6E7B0F5C00F0F
:1027000019D0B0F5000F16D0012515E0386840F457
:10271000003038600FE0386840F400203860201D39
:1027200001F044FD06E0386840F48000386000980D
:1027300001F0A0FD054675B12E432088000533D574
:10274000D4F8A800B0F1007F24D00EDCA8B1B0F11D
:10275000807F10D116E0D9F80010D4F8A42021F41D
:1027600060011143C9F80010E7E7B0F1407F19D0CC
:10277000B0F1806F16D0012515E0386840F40030C4
:1027800038600FE0386840F400203860201D01F008
:102790000DFD06E0386840F480003860009801F0D4
:1027A00069FD05466DB12E432068800122D5A06CDD
:1027B000F0B110280FD0202812D0302818D00125D1
:1027C00017E0D9F80010D4F8A82021F0E0611143F7
:1027D000C9F80010E8E7386840F40030386007E0D6
:1027E000386840F400103860201D01F0DFFC054619
:1027F0006DB12E432088C00431D5E06DB0F5005F87
:1028000023D00DDCA0B1B0F5805F0FD115E0664894
:10281000001F0168A26C21F0300111430160E9E75B
:10282000B0F5405F19D0B0F5804F16D0012515E006
:10283000386840F4003038600FE0386840F4002019
:102840003860201D01F0B2FC06E0386840F48000DA
:102850003860009801F00EFD054685B12E432088B2
:1028600080042FD5206EB0F5403F29D010DC38B35E
:10287000B0F5803F14D0B0F5003F0FD118E0D8F884
:102880000010E26D21F4E0411143C8F80010E6E7C2
:10289000B0F5802F14D0B0F5A02F11D0012510E095
:1028A000386840F480103860201D01F07FFC06E09D
:1028B000386840F400003860009801F0DBFC054601
:1028C0008DB12E432088400430D5D4F8AC00B0F14F
:1028D000405F29D010DC38B3B0F1805F14D0B0F184
:1028E000005F0FD118E0D8F80010226E21F4E0212B
:1028F0001143C8F80010E5E7B0F1804F14D0B0F1F3
:10290000A04F11D0012510E0386840F480103860E5
:10291000201D01F04BFC06E0386840F400003860F0
:10292000009801F0A7FC05466DB12E4320880004F5
:1029300022D5E06EF0B1B0F1805F0ED0B0F1005F53
:1029400010D0012517E0D9F80010D4F8AC2021F000
:10295000E0411143C9F80010E8E7386840F400305E
:10296000386007E0386840F480103860201D01F0BE
:102970001DFC05466DB12E432068C00127D5606C53
:1029800018B3012814D0022817D003281DD0012520
:102990001CE0D8F80010E26E21F040511143C8F855
:1029A0000010E9E72C440258504402585844025899
:1029B000386840F40030386007E0386840F40010B0
:1029C0003860201D01F0F2FB054675B12E432068EA
:1029D000DFF8E8B340024FD5F948016841F480714F
:1029E0000160FEF70DFE82460EE0F4483C300168BF
:1029F000626C21F0030111430160E8E7FEF700FE7D
:102A0000A0EB0A0064282ED8ED480068C005F5D573
:102A100055BBEA4860300068B4F8B01000F440706C
:102A200001F4407188420DD0E448603001680268CA
:102A300021F4407142F480320260026822F4803254
:102A400002600160D4F8B000B0F5807F23D1FEF7BA
:102A5000D7FD824609E0FEF7D3FDA0EB0A0141F263
:102A60008830814201D9032505E0D44860300068F0
:102A70008007F0D57DB12E432078DFF848A3C0074A
:102A800043D0A06F18283ED026DC98B3082829D060
:102A9000102825D12FE0D4F8B000C0F3012103297C
:102AA0000FD0DBF8001021F47C51CBF80010C548A2
:102AB0001C300168B4F8B020C2F30B02114301606E
:102AC000DAE7DBF80020C04B22F47C5203EA101056
:102AD0000243CBF80020EAE7202814D0282812D09F
:102AE000012511E0386840F480103860201D01F0A5
:102AF0005DFB07E007E0386840F4000038600098AC
:102B000001F0B8FB05465DB12E432078800724D53F
:102B1000606F06281FD2DFE800F01C0C141C1C1C80
:102B2000DAF80010A26F21F038011143CAF8001042
:102B3000EBE7386840F480103860201D01F036FB68
:102B400006E0386840F400003860009801F092FB1D
:102B5000054675B100E001252E432078400725D5B4
:102B6000D4F8900006281FD2DFE800F01C0C141CDB
:102B70001C1CDAF80010626F21F007011143CAF83B
:102B80000010EAE7386840F480103860201D01F03A
:102B90000DFB06E0386840F400003860009801F052
:102BA00069FB05469DB100E001252E432078800693
:102BB00031D5D4F88C00B0F1405F2AD011DC40B39D
:102BC000B0F1805F15D0B0F1005F10D119E0D9F8F5
:102BD0000010D4F8902021F007011143C9F800102B
:102BE000E4E7B0F1804F14D0B0F1A04F11D001252F
:102BF00010E0386840F400203860201D01F0D6FA5B
:102C000006E0386840F080703860009801F032FBD0
:102C100005468DB12E432078400631D5D4F8980072
:102C2000B0F5406F2AD011DC40B3B0F5806F15D0FD
:102C3000B0F5006F10D119E0DAF80010D4F88C204C
:102C400021F0E0411143CAF80010E4E7B0F5805FDD
:102C500014D0B0F5A05F11D0012510E0386840F421
:102C600000203860201D01F0A1FA06E0386840F02D
:102C700080703860009801F0FDFA05468DB12E4352
:102C80002078000631D5D4F89C00B0F5C04F2AD08A
:102C900011DC40B3B0F5005F15D0B0F5804F10D116
:102CA00019E0D9F80010D4F8982021F4E05111432C
:102CB000C9F80010E4E7B0F5004F14D0B0F5204F8C
:102CC00011D0012510E0386840F400203860201D44
:102CD00001F06CFA06E0386840F0807038600098C7
:102CE00001F0C8FA054665B32E43207800070BD5DE
:102CF000D4F88000B0F5805F2DD0DAF8002022F4FF
:102D000040520243CAF800202078C0060BD5D4F800
:102D10009400B0F5807F26D0D9F8002022F44072CC
:102D20000243C9F800202068000336D5D4F8A0007B
:102D300008B3B0F5803F26D0B0F5003F2BD0012579
:102D40002AE0D9F80010D4F89C2021F46041114306
:102D5000C9F80010C9E7009801F08CFA386840F013
:102D600080703860D0E7009801F084FA386840F04D
:102D700080703860D7E7386840F400203860201D44
:102D800001F014FA06E0386840F08070386000986E
:102D900001F070FA0546CDB12E43206840032ED5D0
:102DA000D4F88400B0F5801F1AD0B0F5001F1CD0F5
:102DB000B0F5401F21D0012520E00000104402584A
:102DC0000048025854440258CFFFFF00D9F80010C1
:102DD000D4F8A02021F440311143C9F80010DCE7F9
:102DE000386840F40030386007E0386840F400008C
:102DF0003860009801F03EFA054655B12E43206830
:102E0000C0031FD5E06C70B1B0F5803F10D0012534
:102E100017E0DAF80010D4F8842021F440111143AF
:102E2000CAF80010EBE7386840F40030386007E07B
:102E3000386840F400103860201D01F0B7F90546ED
:102E4000DDB12E432068800007D5386840F08070DF
:102E50003860009801F00EFA0643206880031AD506
:102E6000E06FB0B1B0F5807F0FD0B0F5007F10D02B
:102E7000B0F5407F0DD001250CE02D480168E26CD3
:102E800021F4803111430160DCE7386840F4003000
:102E90003860EDB32E432068C00207D5D8F8001083
:102EA000226F21F000411143C8F800102068C000D3
:102EB00008D5DBF80010D4F8B42021F48041114388
:102EC000CBF800102068800207D5D8F80010A26E59
:102ED00021F080711143C8F80010206840000CD523
:102EE000DBF8001021F40041CBF80010DBF80010F3
:102EF000D4F8B8201143CBF800102068002806DA77
:102F00000B480168226D21F040511143016000E03F
:102F100003E05EB10120BDE8F88FDAF80010E26F3F
:102F200021F440711143CAF80010B4E70020F2E721
:102F30004C4402582DE9F047DFF8BC9104460E4698
:102F4000D9F8000000F00700B0420CD2D9F8001008
:102F500021F007013143C9F80010D9F8000000F052
:102F60000700B0427ED12078DFF89081800707D536
:102F7000D8F80010E26821F00F011143C8F80010E2
:102F80002078C00762D0D8F80010A26821F47061E0
:102F90001143C8F8001059496068183902281CD03C
:102FA00003281DD0096801281DD04907002960DACF
:102FB000524F083F396821F0070101433960FEF79D
:102FC0001FFB0546606841F28831022813D00328B0
:102FD0001ED001288A4627D034E009688903E5E736
:102FE00009688901E2E7C905E0E7FEF709FB411B33
:102FF000514501D923E08A463868C0F3C20002284F
:10300000F3D123E0FEF7FCFA411B514501D916E04C
:103010008A463868C0F3C2000328F3D116E0FEF7F1
:10302000EFFA411B51450AD83868C0F3C2000128A5
:10303000F5D10BE0FEF7E4FA411B514502D903201C
:10304000BDE8F087386810F0380FF3D1D9F80010D8
:10305000484601F00701B1420DD9016821F007018E
:10306000314300E005E00160006800F00700B04275
:1030700001D00120E4E72078400707D5D8F80010F8
:10308000226921F070011143C8F80010207801076F
:103090001B4805D50168626921F070011143016088
:1030A0002178C90605D50168A26921F4E0611143C0
:1030B00001602078800607D51149091D0868E2697A
:1030C00020F070001043086000F098F8D8F8001065
:1030D0004FF4807292FAA2F201F47061B2FA82F2B5
:1030E000D140084A515CC840074908600020FEF7FB
:1030F000A3FA0020A4E70000002000521844025860
:103100001C440258826C0008840000241649086898
:1031100040F001000860144A0020103210600A6874
:10312000124B1A400A60104A18321060121D1060CB
:10313000121D10600C4A28321060121D1060121D02
:103140001060121D1060121D1060121D1060121D03
:103150001060121D10600A6822F480220A60024981
:1031600068310860704700000044025845EDF6EAF7
:1031700010B5FFF7EDF808490968012292FAA2F2AA
:1031800001F00F01B2FA82F2D140044A515CC8400A
:103190000349086010BD000018440258826C000802
:1031A0008800002410B5FFF7E3FF074909681022E3
:1031B00092FAA2F201F07001B2FA82F2D140034A0F
:1031C000515CC84010BD00001C440258826C0008CD
:1031D00010B5FFF7CDFF074909684FF4807292FAE6
:1031E000A2F201F4E061B2FA82F2D140024A515CEB
:1031F000C84010BD1C440258826C00083548F0B528
:103200000068364D10F03801334809D00411082900
:1032100004D0334E10290BD018290BD02046F0BD16
:1032200029688906FBD52968C1F3C101C840F0BDF2
:103230003046F0BD274918310A68096812F00302C8
:10324000284BC1F305111B68274F03F001033F68AA
:10325000DFED260AB7EE001AC7F3CC0717FB03F31E
:1032600000EE103A224BB8EE400A06D0012A01D0F7
:10327000022A2BD0B4FBF1F008E02A68920603D5AD
:103280002A68C2F3C102D040B0FBF1F001EE900A0F
:103290001868B8EE612AC0F3080001EE900A1868B9
:1032A000F8EE611A40EE201A31EE810A22EE000A91
:1032B000C0F34620401C00EE900AF8EE600A80EE53
:1032C000201ABCEEC10A10EE100AF0BDB6FBF1F0F8
:1032D000DCE70000104402580090D003004402587C
:1032E00040787D012C4402583444025800000039D3
:1032F000304402582DE9F05F04460078DFF8FC8383
:1033000041F28839DFF8F8A3FE4DC0074ED0D8F857
:1033100000104046C1F3C20102291AD00068C0F370
:10332000C200032805D1DAF8000000F003000228EB
:103330000FD06068B0F5803F12D010B1B0F5A02F6B
:1033400019D0286820F480302860286820F4802074
:1033500009E02868800329D56068002874D025E03A
:10336000286840F480302860606890B1FEF748F922
:1033700006464F4609E0286840F480202860EFE7C1
:10338000FEF73EF9801BB8427DD828688003F7D548
:103390000CE0FEF735F906464F4604E0FEF730F93B
:1033A000801BB842F0D828688003F7D42078D64F25
:1033B00080075AD5D8F8001040464FF47C3B11F0F6
:1033C000380F13D00068C0F3C200032803D1DAF825
:1033D000000080070AD0E068A8B3296821F019012D
:1033E00001432960FEF70CF906461DE028684007F6
:1033F00002D5E0680028B1D02868E16820F0190003
:1034000008432860FEF7FCF8064604E0FEF7F8F8EB
:10341000801B0228B8D828684007F7D507E0FEF7D8
:10342000EFF8801B0228AFD828684007F7D5386826
:103430009BFAABF220F47C312069B2FA82F2904020
:103440000143396011E000E0AEE0286820F001009F
:103450002860FEF7D5F8064604E0FEF7D1F8801B99
:10346000022891D828684007F7D42078C00655D59F
:10347000D8F8001040464FF0F84BC1F3C2010129C3
:1034800017D0006800E0EDE0C0F3C200032805D1CA
:10349000DAF8000000F0030001280AD0E0690028F3
:1034A00028682CD040F080002860FEF7A9F8064676
:1034B00016E02868C00502D5E069802874D1386814
:1034C0009BFAABF220F0F841206AB2FA82F2904007
:1034D0000143396022E0FEF793F8801B022899D857
:1034E0002868C005F7D538689BFAABF2216AB2FAB2
:1034F00082F220F0F8409140084338600EE020F05E
:1035000080002860FEF77CF8064604E0FEF778F8B5
:10351000801B022887D82868C005F7D420780007C8
:1035200024D5774F60694C37002838680FD040F0B9
:1035300001003860FEF764F8064604E0FEF760F824
:10354000801B02288DD838688007F7D50EE020F060
:1035500001003860FEF754F8064604E0FEF750F824
:10356000801B02287ED838688007F7D42078800630
:1035700023D5A069002828680FD040F48050286027
:10358000FEF73EF8064604E0FEF73AF8801B0228F4
:1035900068D828688004F7D50FE020F480502860B0
:1035A000FEF72EF8064605E0D6E0FEF729F8801B68
:1035B000022857D828688004F7D42078400744D5DB
:1035C000524F386840F480703860FEF719F80646AC
:1035D00004E0FEF715F8801B642843D83868C0055E
:1035E000F7D5474FA068483701280AD008B1052809
:1035F00011D0386820F001003860386820F00400ED
:1036000002E0386840F001003860A06888B1FDF73A
:10361000F7FF064609E0386840F004003860F0E73C
:10362000FDF7EEFF811B49451CD838688007F7D5A8
:103630000BE0FDF7E5FF064604E0FDF7E1FF811B27
:1036400049450FD838688007F7D4606AF0B3D8F8D6
:103650000010C1F3C20103297ED00228286820F09F
:10366000807000E079E0286003D0FDF7C9FF0446D0
:1036700087E0FDF7C5FF064604E0FDF7C1FF801BAC
:1036800002287BD828688001F7D4DAF8001040F2CD
:10369000F3329143E26A41EA0211A26A1143CAF885
:1036A000001094F834004FF4FE02218E4002491EAF
:1036B000A0F5007080B2C1F308010843218F491EB4
:1036C00002EA0141084394F83C1000E05CE0491E26
:1036D000120202EA016108430949083108600B1D22
:1036E00019684FF6F872A06C914392FAA2F2B2FAFE
:1036F00082F2904001431960014809E010440258E9
:103700002844025800440258044402580048025811
:10371000001D0168226C21F00C0111430160016859
:10372000626C21F0020111430160016841F48031B3
:103730000160016841F400310160016841F48021B9
:103740000160016841F001010160286840F080706B
:103750002860FDF755FF01E018E00FE0044604E0A3
:10376000FDF74EFF001B022808D828688001F7D516
:103770000AE0FDF745FF001B022802D90320BDE83F
:10378000F09F28688001F4D40020F8E70120F6E7D4
:103790000068503050F8210070470068503040F801
:1037A0002120704770B5040003D094F8210010B1B7
:1037B00007E0012070BD002084F82000204600F0C2
:1037C00045F8022084F821002168CA20486253206D
:1037D00021684862204600F0B1FDFF2100282068E2
:1037E00004D04162042084F82100E2E78268164B8D
:1037F0001A408260206882686368A5691A43236959
:103800002B431A4382602268E068106120680269D5
:10381000238942EA034202612068C26822F08002E2
:10382000C2602068C26C22F00302C264E26960696F
:1038300002432068C36C1A43C264206841620120BD
:1038400084F82100002070BDBFFF8FFF00B5C3B01A
:10385000FEF776FD0C202F90002038900121349146
:1038600031902FA8FFF746FD08B1FDF774F84FF42B
:103870008000009040132C906846FEF795FE08B13A
:10388000FDF769F80748016841F400410160002232
:103890000F210220FDF73AFF0220FDF729FF43B078
:1038A00000BD0000704402584FF0E0210428086970
:1038B00003D020F004000861704740F00400FAE7EC
:1038C00010B5FDF7A3FE0C4C002054F8201021B1D8
:1038D00054F82010491E44F82010401C0428F4D34A
:1038E00006480078002806D1A068002803D1FCF71C
:1038F00015FE3220A06010BDF0200024B00100248D
:10390000401EB0F1807F10B501D3012010BD4FF0F3
:10391000E02460610F21601702F08BFC0020A061A1
:1039200007202061002010BD7047704710B50400CB
:1039300003D094F83D0010B107E0012010BD002035
:1039400084F83C00204600F00CF8022084F83D008A
:103950002068211D00F0C4FD012084F83D000020F6
:1039600010BD70470168CA6842F00102CA60006871
:10397000018841F00101018000207047704770B557
:103980000446006801694FF00005C943890715D452
:10399000C168C943890711D4E91E0161012020775C
:1039A000206880698007204602D0FFF7E7FF04E027
:1039B00000F0A5F8204600F0A3F8257720680169FB
:1039C000C943490717D4C168C943490713D46FF0E5
:1039D00004010161022020772068806910F4407F93
:1039E000204602D0FFF7CAFF04E000F088F8204626
:1039F00000F086F8257720680169C943090716D4C5
:103A0000C168C943090712D46FF00801016104209D
:103A100020772068C0698007204602D0FFF7AEFFFC
:103A200004E000F06CF8204600F06AF82577206882
:103A30000169C943C90617D4C168C943C90613D46B
:103A40006FF010010161082020772068C06910F430
:103A5000407F204602D0FFF791FF04E000F04FF8CE
:103A6000204600F04DF8257720680169C943C90751
:103A700008D1C168C943C90704D1891E0161204624
:103A800000F040F8206801696FF08005C94309061D
:103A900007D4C168C943090603D405612046FFF76E
:103AA00043FF20680169C943C90507D4C168C943F8
:103AB000090603D405612046FFF736FF2068016937
:103AC000C943490609D4C168C943490605D46FF002
:103AD00040010161204600F03BF820680169C943BC
:103AE00089060BD4C168C943890607D46FF0200149
:103AF00001612046BDE87040FFF717BF70BD7047F9
:103B00007047000070B50F4DD5E90110884218D0FC
:103B100002D9C0F5006401E0A1EB00040A49A2B299
:103B200001440A4801F006FA084801F043FA002867
:103B300007D1A8682044A860B0F5006F01D100202B
:103B4000A86070BD00000024540E00248C180024CE
:103B50007047704770B504001AD0242084F87900AB
:103B60002068016821F001010160206800250560DE
:103B70002068456020688560204600F003F9E5670D
:103B800084F8795084F87A50002084F8785070BD19
:103B9000012070BDFEE7000070B502680446D069E0
:103BA0001368916810F00F0F64D0594D03F49076AC
:103BB0000D40354376D0C50707D0DD0505D5012575
:103BC0001562E26F42F00102E267820708D5CA0778
:103BD00006D0256802222A62E26F42F00402E26700
:103BE000420708D5CA0706D0256804222A62E26F78
:103BF00042F00202E26702070ED503F0200201F054
:103C000080552A4352EAC17206D0256808222A62EA
:103C1000E26F42F00802E267E26F002A3AD08006C3
:103C200008D503F0200001F08051084302D020465F
:103C300000F0AFFDE06F000703D420688068400605
:103C40002AD5204600F08EFD2068816849061ED5E1
:103C5000816821F040018160606FC0B12D4901652C
:103C6000606FFCF7A7FF002814D0606F016DBDE8FE
:103C700070400847850615D503F0200501F08056F1
:103C800035430FD02046BDE8704000F082BD20468D
:103C9000FFF780FF70BD05E02046FFF77BFF0020A7
:103CA000E067F7E7C6024FF020050CD54E020AD5B3
:103CB000E803106284F8795084F87A502046BDE811
:103CC0007040FFF746BF06060AD503F0800601F4F0
:103CD00000010E4304D02046BDE8704000F0E8BF6C
:103CE00041060BD5590609D51168204621F040013F
:103CF000116084F8795000F0A5F9CBE70002C9D52E
:103D00005800C7D5106820F080401060C2E700005E
:103D100001000010C546000810B5040003D094F857
:103D2000790010B107E0012010BD002084F8780070
:103D3000204600F04BF8242084F8790020680168C0
:103D400021F001010160204600F05EFD0128EBD06A
:103D5000606B10B1204600F023FC2068416821F41C
:103D6000904141602068816821F02A0181602068CB
:103D7000016841F0010101602046BDE8104000F0FB
:103D800073BC000070B50F4C206840F40030206018
:103D9000206820F4003020600B4D20212846FDF7DC
:103DA00091FA40212846FDF78DFA2620FDF78FFC79
:103DB000206840F480202060206820F4802020606B
:103DC00070BD000090440258000C02582DE9F047E5
:103DD00007464148B6B0016841F00801016001683A
:103DE00001F008013491016841F0080101600068A8
:103DF00000251E95022400F00800009434906846C7
:103E0000FEF7D2FB344E0836306840F400303060A4
:103E1000306800F4003034902F480838016841F0D1
:103E20000101016000684FF00309DFF8B0A02FA97D
:103E300000F0010034902020CDE92F040120072458
:103E40003394CDE931095046FDF7D8FA2FA94FF048
:103E500040085046CDF8BC803394FDF7CFFA214C92
:103E60001F4820602C20C4E901084FF48060C4E999
:103E7000035065614003A561E56125626562C4E99F
:103E80000A90801020632046FDF740F83C6700222E
:103E90000621A7632F20FDF739FC2F20FDF728FC12
:103EA000002205212620FDF731FC2620FDF720FC0D
:103EB000306840F00200306030680022062100F0D7
:103EC000020034901D20FDF721FC1D20FDF710FCA1
:103ED00036B0BDE8F0870000E0440258000C0258FC
:103EE000B80002401418002490F87A30202B4CD1EE
:103EF000B9B1B2B190F87830012B46D0012380F8E7
:103F000078304166A0F86820A0F86A20FF22816816
:103F1000B1F5805F07D07F2351B1B1F1805F0CD044
:103F200010E001207047016921B940F2FF1107E05C
:103F3000016909BBA0F86C2004E00169E1B13F21EF
:103F4000A0F86C100021C167222280F87A2080F846
:103F5000781001688A6842F001028A6001680A6884
:103F600092000CD50A6842F480720A600068816889
:103F700041F08051816006E0A0F86C30E2E708680B
:103F800040F49070086000207047022070470000E5
:103F9000074A1168491C1160B1F5807F01D10021E9
:103FA00011600449126811440122FFF79DBF00000F
:103FB000C80100240021002470B5044690F879005F
:103FC000202836D191B38AB394F87800012830D0F4
:103FD000012084F87800E165A4F86020A4F862204C
:103FE0000025E567212084F879001346216F1248E7
:103FF000C863216F11480864216F1148C864206F9D
:1040000005652668E16D206F5C3406F12802FDF736
:1040100047F854F85C1C40200862257754F85C0C83
:10402000816841F080018160002070BDFFE70120C0
:10403000FBE70220F9E700002B4700085B47000878
:10404000D946000870477047FEE700007FB5184C5E
:10405000206820F480302060154D7035286820F0ED
:10406000010028604FF05040019018208DF80800A2
:1040700003208DF80B0000208DF80F0001218DF832
:104080000E108DF800108DF80D008DF80A008DF8D7
:1040900001008DF809008DF80C006846FDF7ECFA78
:1040A00005202860206840F4803020607FBD00003B
:1040B00024ED00E0FEE770470148FDF7C1BC0000B9
:1040C000540200242DE9F84F0E46D0F800808146B6
:1040D000C1EBC60100EB8104D4E91301451A206C41
:1040E0003834A84200D20546E81C08EB461AC1172E
:1040F00000EB9170871018E0451AA068A84200D222
:104100000546E81CABB2C117F2B200EB9170871004
:1041100099F8100000904046E16802F076F8E068F7
:104120002844E060A0692844A061DAF8180980B248
:10413000B84205D9D4E90501814201D20028DBD17A
:10414000002D06DC0120D8F83418B0408143C8F8AF
:1041500034180020BDE8F88F104810B5FFF7FAFCBE
:1041600000B1FEE70D480C220D4901604FF461419A
:10417000416000218160C1600161C0E90521C16128
:10418000FFF7CAFD00B1FEE7064901220348FFF729
:10419000ABFE002800D0FEE710BD0000541600243E
:1041A0000044004000210024704700002DE9F04148
:1041B0002F4F04464FF000083868C043800709D0ED
:1041C0002B4D283D286820F080602860FDF718FA04
:1041D000064607E00120BDE8F081FDF711FA801BDB
:1041E00002283ED828680001F7D43868216820F4F6
:1041F0007C3040EA01303860207A4FF4FE02A1881A
:104200004002491EA0F5007080B2C1F308010843C6
:10421000A189491E02EA01410843217C1202491E7C
:1042200002EA016108431249103108601048001D7C
:104230000168626921F0C001114301600168A2694F
:1042400021F0200111430160286840F0806028605F
:10425000FDF7D6F9044606E0FDF7D2F9001B022867
:1042600001D90320B7E728680001F5D54046B2E739
:10427000284402582DE9F0412F4F04464FF0000822
:104280003868C043800709D02B4D283D286820F0AE
:1042900080502860FDF7B4F9064607E00120BDE82C
:1042A000F081FDF7ADF9801B02283ED82868800018
:1042B000F7D43868218820F07C7040EA01503860DB
:1042C000207A4FF4FE02A1884002491EA0F500703A
:1042D00080B2C1F308010843A189491E02EA0141E5
:1042E0000843217C1202491E02EA01610843124977
:1042F000183108601048001D0168626921F44061AE
:10430000114301600168A26921F400711143016049
:10431000286840F080502860FDF772F9044606E0F6
:10432000FDF76EF9001B022801D90320B7E72868C2
:104330008000F5D54046B2E72844025870B50546DE
:104340000068C168490613D44FF0FF31C160FDF722
:1043500057F94FF47A76044606E0FDF751F9001B51
:10436000B04201D9032070BD2868C0684006F4D56A
:10437000002070BD704710B5FDF748F9BDE810404A
:10438000FFF79EBA304870B5CCB0016821F0040147
:1043900001602D4800240C30016841F44041016067
:1043A000016801F440414A9101688904FCD501206B
:1043B0002F900225329400043090052038953694D1
:1043C0000826CDE93950A020CDE93B050420CDE9F0
:1043D0003D05CDE93F652FA8FEF78CFF00B1FEE754
:1043E000192009904FF4A870CDE90A050720CDE9FE
:1043F0000C054FF480200090C00021906846FEF725
:10440000D3F843A93F204290032081E85100402087
:104410000101CDE9470104214690499042A8FEF7E9
:1044200089FD0A48016841F0800101600748F430C5
:10443000016841F002010160006800F002004A904A
:10444000FCF7A8FE4CB070BD0C480258004402585E
:104450001C48016841F4700101601B49086840F084
:1044600001000860184A0020103210600A68174BDB
:104470001A400A60144A18321060121D1060121D92
:104480001060114A28321060121D1060121D106059
:10449000121D1060121D1060121D1060121D1060A0
:1044A000121D10600A6822F480220A6006496031F9
:1044B000086001200649C1F80801C0060149803999
:1044C0000860704788ED00E0004402587FEDF6EA8E
:1044D000008000510148FFF752BA0000D4160024B2
:1044E0002DE9F04702884FF0804A254C254D264E95
:1044F000A042264F264B09D0504507D0A84205D0F0
:10450000B04203D0B84201D0984204D122F0700CDE
:104510004A6842EA0C02DFF87CC0DFF87C80A042E7
:10452000DFF878900FD050450DD0A8420BD0B042A4
:1045300009D0B84207D0984205D0604503D0404525
:1045400001D0484503D122F44075CA682A438D8AB8
:1045500022F080022A4302808A68C2620A880285A9
:10456000A04207D0984205D0604503D0404501D015
:10457000484501D1098A018601214161BDE8F087E2
:10458000000001400004004000080040000C004012
:104590000004014000400140004401400048014047
:1045A00090F83410C90706D001684A68836B22F47A
:1045B00000321A434A6090F83410890706D5016822
:1045C0004A68C36B22F480321A434A6090F8341070
:1045D000490706D501684A68036C22F480221A4311
:1045E0004A6090F83410090706D501684A68436CA0
:1045F00022F400421A434A6090F83410C90606D5E6
:1046000001688A68836C22F480521A438A6090F8A9
:104610003410890606D501688A68C36C22F40052FA
:104620001A438A6090F83410490611D501684A6827
:10463000036D22F480121A434A60016DB1F5801FA8
:1046400006D101684A68436D22F4C0021A434A60E9
:1046500090F83410090606D501684A68806D22F486
:10466000002202434A607047F8B500250446C5673A
:10467000FCF7C6FF0746206800686FF07E4600071B
:1046800008D500223B464FF400112046009600F06A
:1046900049FB60B92068006840070AD500223B4604
:1046A0004FF480012046009600F03CFB08B1032047
:1046B000F8BD202084F8790084F87A00002084F87E
:1046C0007850F8BD10B5806B0021A0F86A10A0F8F2
:1046D0006210FFF75FFA10BD70B5846BFCF7B4FA97
:1046E000022821D094F879000025212808D12068DB
:1046F0008068000604D5A4F86250204600F040F817
:1047000094F87A00222808D120688068400604D5F1
:10471000A4F86A50204600F025F8E06F40F0100041
:10472000E0672046FFF736FA70BD014610B5806B92
:10473000C969B1F5807F0DD00021A0F86210016831
:104740008A6822F080028A600068016841F04001B6
:10475000016010BDFFF776FC10BD10B5806BFFF750
:1047600072FC10BD01680A6822F490720A60016848
:104770008A6822F001028A60202180F87A1070474E
:1047800001680A6822F0C0020A60202180F87910CE
:10479000704710B5B0F86C2090F87A300168222B81
:1047A00005D0088B40F008000883022010BD898CDA
:1047B0008368B3F5805F01D103696BB11140426E2C
:1047C000531C43661170B0F86A10491E0904090CA5
:1047D000A0F86A1007D015E0436E11401980416EB1
:1047E000891C4166EFE701680A6822F490720A604A
:1047F00001688A6822F001028A60202180F87A101C
:10480000FFF7C6FB002010BD2DE9F04F04460068FD
:104810008025FD4B0021D4F810C087B0A6680F4654
:10482000D4F81C8046EA0C06D4F814C0A26A4CEAFC
:10483000080C46EA0C0632430668DFF8D0C306EAE5
:104840000C061643066020684268E66822F440526F
:10485000324342602268A0699A4201D0266A3043FE
:10486000A66AB6F1005F04D1D4E90B6C46EA0C06E7
:1048700030439668DFF898C306EA0C060643966054
:104880002068C26A666A22F00F023243C262E14EB9
:104890002068E14AB04210D1126802F03802182AAA
:1048A00074D005DCCAB3082A7AD0102A47D179E03F
:1048B000202A7BD0282A7CD17AE0D84EB04209D178
:1048C000126802F00702062A73D2DFE802F0536989
:1048D0006B6D6F71D24EB04209D1126802F00702BF
:1048E000062A66D2DFE802F0465C5E606264CD4E66
:1048F000B04209D1126802F00702062A59D2DFE855
:1049000002F0394F51535557C74EB0420BD1126880
:1049100002F00702062A4CD200E00EE0DFE802F0C7
:104920002A4042444648C14EB04209D1126802F0C2
:104930003802182A38D0BBDCB4E74FF0010538E064
:10494000BB4EB04209D1126802F00702062A30D2EB
:10495000DFE802F01026282A2C2EB64EB0420BD1EA
:10496000126802F00702062A23D2DFE802F00319D8
:104970001B1D1F2100251CE098421AD1A64A121DBA
:10498000126802F00702062A13D202E00CE007E0E8
:104990000CE0DFE802F0030507090B0D022508E033
:1049A000042506E0402504E0082502E0102500E08B
:1049B0002025DFF864B2A04E9842DFF880A2ABF168
:1049C000540B73D1102D31D006DC022D09D0042DEB
:1049D0000AD0082D2FD111E0202D29D0402D2AD129
:1049E00007E0FDF7CFFC13E06846FDF7E1FC019816
:1049F0000EE003A8FDF75AFD049809E0DBF800106B
:104A00005846890610D50068C0F3C1012AFA01F0A2
:104A1000002811D06168894601EB410181420AD822
:104A2000B0EB093F07D808E05046F3E78448F1E7C8
:104A30004FF40040EEE7012733E1102D4FF000085E
:104A40004ED006DC022D0FD0042D15D0082D04D138
:104A50002DE0202D4AD0402D13D00127794AA0F512
:104A60004071914270D9E6E7FDF78CFC626A002341
:104A7000414636F812200DE06846FDF799FC019892
:104A800003E003A8FDF712FD04980023616A36F8DD
:104A900011201946FBF720FC62680902030241EA73
:104AA00010615008181841EB080115E032E0DBF8FE
:104AB00000105846890609D500680023C0F3C101DB
:104AC0002AFA01F0616A36F8112015E0606A0023C5
:104AD00036F8102050460FE00023FBF7FDFBBDE742
:104AE000606A002336F81020554805E0606A00230C
:104AF00036F810204FF400400021FBF7EDFB0902CF
:104B0000020241EA10614FEA590010184A4641EB8F
:104B10000801E1E7E3694FF4004293424DD1082DCB
:104B200023D005DC8DB1012D12D0042D06D112E069
:104B3000102D35D0202D3AD0402D11D0012721F055
:104B40000F00C1F3420108435AE0FEF72BFB16E0C9
:104B5000FEF73EFB13E06846FDF72AFC01980EE0E5
:104B600003A8FDF7A3FC049809E0DBF80010584601
:104B7000890608D50068C0F3C1012AFA01F0616A0C
:104B800036F8111010E0606A36F81010BAFBF1F038
:104B90004100606801EB5001B1FBF0F081B2CEE75B
:104BA000606A36F810102648B0FBF1F0F0E7606A52
:104BB00036F81000B2FBF0F0EAE7082D4AD00ADC24
:104BC0000DB3012D43D0042D7FF44DAF6846FDF7A2
:104BD000EFFB019809E0102D52D0202D55D0402D2B
:104BE000F2D103A8FDF762FC0498616A36F811104F
:104BF000B0FBF1F1606801EB5001B1FBF0F080B265
:104C00002168C8604DE01FE0000C0058F369FFCF39
:104C1000FFF4FF11001001405444025800440040CA
:104C200000480040004C004000500040001401408B
:104C300000780040007C00409A6C00080090D0038F
:104C400000093D00FFFC0F00FEF7ACFACDE7FEF7D0
:104C5000BFFACAE7DBF80020594692060AD5096870
:104C6000C1F3C1022AFA02F1626A36F81220B1FBDE
:104C7000F2F20FE0616A36F81120BAFBF2F209E0B5
:104C8000616A36F811200949F1E7616A36F81110B6
:104C9000B2FBF1F2616802EB5102B2FBF1F189B2B1
:104CA000C16007B03846BDE8F08F000000093D0044
:104CB00090F87910212901D002207047B0F86210D5
:104CC00021B18168B1F5805F13D014E001680A68F2
:104CD000920004D58A6822F400028A6003E00A6820
:104CE00022F080020A600068016841F04001016022
:104CF0000CE0016961B1C16D4A1CC26502680978A6
:104D00001185B0F86210491EA0F8621000207047AB
:104D1000C16D02680988C1F308011185C16D891C44
:104D2000C165EEE72DE9F0411E4617468846044668
:104D3000069D1CE0681C1AD025B1FCF761FC801BA5
:104D4000A84214D92068016821F4D071016020685C
:104D5000816821F001018160202084F8790084F8C5
:104D60007A00002084F878000320BDE8F0812068F4
:104D7000C16938EA010004D00020B842DAD000202E
:104D8000F3E70120F9E700000148FEF705BF000046
:104D900054160024D0F8180220B10021C0F81412D3
:104DA000084670470220704770B5D0F81842054693
:104DB00000F0D3FAC4F80C02D5F8180248B1D5F8BF
:104DC0001C12D4F80402CA6804F50371904700204D
:104DD00070BD022070BD70B500250446812100F031
:104DE00017FA0121204600F013FA8221204600F034
:104DF0000FFAD4F8180250B1D4F81C0204F5067466
:104E000040688047206801F07DFD00202060284632
:104E100070BD10B5D0E9864159B194F80002FF2861
:104E200007D08B68214694F801229847FF2084F828
:104E30000002002010BD00000A21018000487047D8
:104E40009C0000244321018000487047EC000024AE
:104E50004321018000487047A800002443210180BD
:104E600000487047300100242DE9F0410546007CE0
:104E700000264FF4007770B3402328460222812198
:104E800000F0B0FA402328460222012100F0AAFADD
:104E9000082328460322822100F0A4FA4FF4077069
:104EA00001F06CFEC5F81802F0B10446D5F81C02FA
:104EB000006880470021C4F81412C4F81812287C36
:104EC000D4F8042290B140232846012100F094FA3E
:104ED0003046BDE8F081FFE702223B4681212846AB
:104EE00000F080FA3B46CEE70126F1E73B46EBE7D0
:104EF00010B5D0F8181269B1027C002AD1F804224A
:104F000005D04023012100F077FA002010BD4FF4B6
:104F10000073F7E7022010BD02460220002902D0EC
:104F20000020C2F81C127047D0F81802C0F8041212
:104F300000207047D0F81802C0F81022C0F80812FC
:104F40000020704770B5D0F81852064608780C4615
:104F500010F0600121D0202927D1E288AAB10006F3
:104F6000607807D5D6F81C128B6829469847E288E6
:104F7000294617E085F800022946A07985F8010244
:104F80003046E28800F050F80FE0D6F81C120022FC
:104F900060788B682146984707E060780A2804D13A
:104FA00003490122304600F059F8002070BD00008E
:104FB0009800002410B5D0F8181289B1D1F8142245
:104FC0000AB1012010BD0122C1F81422B1F810224B
:104FD00093B2D1F80822812100F09BFA002010BD85
:104FE000022010BD10B5D0F814225268904700205E
:104FF00010BD13460A46002110B500F0FDF900204F
:1050000010BD13460A46002110B500F082FA0020B8
:1050100010BD10B58021044600F05DFA2046BDE8C1
:105020001040002100F057BA10B5C0F80821032342
:10503000C0F8F4311346C0F80C210A46002100F0F4
:10504000DBF9002010BD0521002310B51A46C0F879
:10505000F411194600F0D0F9002010BD10B582619E
:105060000223C0F8F4311346C2610A46002100F061
:1050700050FA002010BD0421002310B51A46C0F8D4
:10508000F411194600F045FA002010BD10B5044691
:10509000012084F8FC01D4F81402217942682046EA
:1050A0009047204600F025FA204600F042F9002003
:1050B00010BDF8B5044648880D46010A08294BD2B0
:1050C000DFE801F04A0409174A4A4048D4F81012B0
:1050D000207C0A6832E0207C02260028D4F81402E2
:1050E00005D0C16A684688470146467041E0816A3A
:1050F000F8E7C0B206282FD2DFE800F003080D124F
:10510000171CD4F81012207C4A6817E0D4F810124B
:10511000207C8A6812E0D4F81012207CCA680DE066
:10512000D4F81012207C0A6908E0D4F81012207C10
:105130004A6903E0D4F81012207C8A6969469047D6
:10514000014616E0207C38B9D4F81402416B684659
:105150008847F5E7207C20B129462046FFF759FF14
:10516000F8BDD4F81402016B684688470146072051
:105170004870BDF800000028F2D0EA88002AEFD07D
:10518000824200D902462046ADF80020FFF766FFB4
:10519000F8BD002370B500281DD00025044602E0AC
:1051A0006D1C641CEDB22678002EF9D1022404EBAC
:1051B00045041480CC545B1C03220024CA545B1C9D
:1051C00006E0CA545B1CDAB28C54521C401CD3B2A9
:1051D0000278002AF5D170BD10B580B1D0F8143234
:1051E00013B10023C0F8143209B1C0F81012012124
:1051F00080F8FC11027000F0B5F8002010BD02200C
:1052000010BD10B5D0F82002FCF74AFB002010BDFD
:1052100010B5D0F82002FCF721FB002010BD2DE9CD
:10522000F0411746044641B1D4F8140242698AB3EA
:1052300094F8FC01032842D043E0D4F8F41100258F
:1052400004F11400022933D1D0E902639E4207D948
:10525000F31A39469AB283602046FFF7D2FE12E075
:105260004068B0FBF3F103FB1101A1B9984212D3DE
:10527000D4F8F81188420ED2002220461146FFF7DA
:10528000C0FEC4F8F85100231A461946204600F023
:10529000B3F80DE012E0D4F81402C16829B194F813
:1052A000FC01032801D1204688472046FFF7CBFEAA
:1052B00094F80002012804D184F8005201E020464D
:1052C00090470020BDE8F08170B51546044641B115
:1052D000D4F8140282693AB394F8FC01032824D06C
:1052E00025E0D4F8F41104F5827003291FD1D0E928
:1052F00002318B420BD95B1A83600846834200D38C
:10530000034629469AB22046FFF773FE0FE0D4F811
:105310001402016929B194F8FC01032801D1204647
:1053200088472046FFF7A7FE01E02046904700206F
:1053300070BD10B5D0F82002FCF77AFA002010BD3D
:105340000020704710B5012180F8FC11D0F814221C
:10535000017952689047002010BDD0F82002FCF778
:10536000C7BA000014494023124A10B50A60082247
:105370004A6000220A634B6102230A62C1E90632D5
:10538000CA62CB608A62C1F8FC03C0F820120846EA
:10539000FCF71CFE08488021FCF70DFA0648402265
:1053A0000021FCF70CFA044880220121FCF707FADF
:1053B000002010BD00000840540200240A06D0F866
:1053C000200201F07F01C1EBC10100EB810002D599
:1053D00090F83A00704790F8FA0170470020704743
:1053E0000020704710B51C46D0F820021346224614
:1053F000FCF788FA002010BD10B5D0F82002FCF7A9
:10540000ABFA002010BD70B50022044640231146BF
:10541000FFF7E8FF4025204600222B468021C4F8F4
:105420001051FFF7DFFF2562012084F8FC01D4F85A
:10543000180228B1D4F81402217942682046904716
:10544000002070BD90F8FD1180F8FC11002070471D
:1054500010B590F8FC11032904D1D0F81412C969D1
:1054600001B18847002010BD01740020704710B5BD
:10547000D0F82002FCF715FF002010BD70B50446DF
:1054800000F50270054600F050F80120C4F8F40160
:10549000B4F80E02C4F8F80194F8082212F01F00C4
:1054A0000AD001280DD0022810D002F08001204639
:1054B00000F011F8002070BD2946204600F09BF84E
:1054C000F8E72946204600F07DF9F3E72946204613
:1054D00000F00AF9EEE710B5D0F82002FCF760FA08
:1054E000002010BD10B5D0F82002FCF7F3FE00201C
:1054F00010BD10B5D0F82002FCF7F6FE002010BD5C
:1055000090F8FC1180F8FD11042180F8FC110020B6
:10551000704710B501F07F0400EB0414A361D0F8CC
:105520002002FCF76DFA002010BD0A7802704A785C
:105530004270CB788A7802EB032242804B790A7959
:1055400002EB032282808A79C97902EB0121C180B2
:1055500070470246002011B1C2F8141270470220B1
:10556000704710B5D0F8142202241AB1126890477F
:1055700000B90024204610BD70B51B4E0D46897839
:1055800004460129317028D894F8FC01022802D081
:10559000032822D105E099B16160032084F8FC0161
:1055A00009E091B1606888420AD0C1B22046FFF795
:1055B00019FD317861602046FFF7D3FF02280CD037
:1055C0002046BDE87040FFF756BD022084F8FC017C
:1055D00020466160FFF706FDF2E729462046BDE858
:1055E0007040FFF716BD0000AC01002410B5FFF7B6
:1055F00079FF002010BD2DE9F0414A7800270126EF
:105600003B460A2A43D2DFE802F03C5842514208A6
:1056100005422A27FFF74DFD63E004468888C8B994
:10562000C888B8B9887800F07F0594F8FC01032891
:1056300010D02946204684F8FE51FFF718FF204677
:10564000FFF719FD1DB1022084F8FC0149E084F840
:10565000FC6146E020461AE0FFF78EFF41E0CA8871
:10566000012A14D190F8FC21022A02D0032A0ED17B
:1056700004E00122836000F1080114E00122011D11
:1056800011E090F8FC21022A04D0032A02D0FFF78F
:10569000C0FC26E0C660D0F8041209B10321C16045
:1056A000022200F10C01FFF7D9FC1AE004464888F9
:1056B000012816D1C4F804620BE0044690F8FC01FE
:1056C000022801D00328C5D14888012809D1C4F88F
:1056D0000432D4F814028268204690472046FFF72F
:1056E000CAFC3846BDE8F08170B50D46044609791C
:1056F00000262878C0F34110012806D06878A0B3AE
:1057000001281FD003283FD107E0D4F8140229460E
:10571000826820469047002070BD94F8FC01022862
:1057200017D003282CD1688828B921B1802902D04C
:105730002046FFF7D0FED4F814022946826820469E
:10574000904713E094F8FC01022802D0032817D1F7
:1057500003E0C9B180291BD116E06888A0B94806CA
:1057600004D02046FFF74DFDE5E703E02046FFF7B4
:1057700082FC09E094F8FC01022807D003280BD032
:1057800029462046FFF745FC304670BD4806FBD051
:105790002046FFF7A0FEF7E7080601F07F0004EBC4
:1057A000001501D5143501E005F582752046FFF797
:1057B00005FE00B101202946022228602046FFF79D
:1057C0004DFCE1E770B5054690F8FC010C46032856
:1057D0000DD1207901280AD8D5F81402826828460C
:1057E0009047E08830B92846FFF745FC02E028469C
:1057F000FFF70FFC002070BD04A00A46024910B557
:10580000FFF7C7FC004810BD141700245643502072
:10581000436F6E6669670000122008800048704779
:105820004800002404A00A46024910B5FFF7B1FC65
:10583000004810BD1417002456435020496E74656B
:1058400072666163650000000420088000487047AC
:105850004400002404A00A46024910B5FFF799FC51
:10586000004810BD14170024334420526F626F7437
:10587000696373000A46054910B520B104A0FFF71B
:1058800088FC024810BD06A0F9E7000014170024A8
:1058900050583420424C20464D552076362E780004
:1058A00046465420436F6D506F727420696E2048D5
:1058B00053204D6F64650000022008800048704747
:1058C0004000002430B54C781D4B01220D78AA40D1
:1058D000012CD0F81C4818D044EA0242C0F81C2819
:1058E0000A7800EB4210D0F8002B12040BD4D0F849
:1058F000002B0C89C4F30A042243C97843EA81418E
:105900000A43C0F8002B002030BD92B21443C0F807
:105910001C480A7800EB4210D0F800492404F2D465
:10592000D0F800490D89C5F30A052C43C9788904CC
:1059300041EA82510C431C43C0F80049E3E70000F0
:1059400000800010D0F800196FF30A01C0F80019A8
:10595000D0F80818C1F34101022905D1D0F8001987
:1059600041F00301C0F80019D0F8041841F4807127
:10597000C0F804180020704770B50446049D0D99C6
:10598000069801280CD0E06840F04000E060204616
:1059900000F028F84FF48030A063012D16D01DE0F0
:1059A000A06B20F48030A063E0680D4A1040E060F6
:1059B000E06820F44010E060012903D1E06840F481
:1059C0008010E060204600F00DF8E6E7A06840F0A7
:1059D0000C00A060A06840F02000A060002070BD16
:1059E000BFFFBDFF00210B4A491C91420AD8036941
:1059F000002BF9DA0021036943F001030361491C1C
:105A0000914201D9032070470369DB07F7D10020D9
:105A100070470000400D030030B54D7801230C782D
:105A200003FA04F2012DD0F83C4816D024EA0242D1
:105A3000C0F83C28D0F81C280C78A34022EA034286
:105A4000C0F81C28097800EB4110D0F8001B21F4A5
:105A50000041C0F8001B002030BD92B29443C0F852
:105A60003C48D0F81C280C78A3409BB29A43C0F85D
:105A70001C28097800EB4110D0F8001921F40041EE
:105A8000C0F80019E7E710B5D0F8041821F00201BA
:105A9000C0F804180320FBF76BFB002010BD10B505
:105AA000D0F8041841F00201C0F804180320FBF7F5
:105AB0005FFB002010BD00002DE9F0470D460446B5
:105AC000DDE90A1A0027DDF83C80089E806B40F46F
:105AD0000010A063B8F1000F0BD1A06B20F40010F0
